{
  "contractName": "Crowdsale",
  "abi": [
    {
      "inputs": [
        {
          "internalType": "uint256",
          "name": "_startTime",
          "type": "uint256"
        },
        {
          "internalType": "uint256",
          "name": "_endTime",
          "type": "uint256"
        },
        {
          "internalType": "uint256",
          "name": "_weiTokenPrice",
          "type": "uint256"
        },
        {
          "internalType": "uint256",
          "name": "_etherInvestmentObjective",
          "type": "uint256"
        }
      ],
      "stateMutability": "nonpayable",
      "type": "constructor"
    },
    {
      "inputs": [],
      "name": "endTime",
      "outputs": [
        {
          "internalType": "uint256",
          "name": "",
          "type": "uint256"
        }
      ],
      "stateMutability": "view",
      "type": "function",
      "constant": true
    },
    {
      "inputs": [
        {
          "internalType": "address",
          "name": "",
          "type": "address"
        }
      ],
      "name": "investmentAmountOf",
      "outputs": [
        {
          "internalType": "uint256",
          "name": "",
          "type": "uint256"
        }
      ],
      "stateMutability": "view",
      "type": "function",
      "constant": true
    },
    {
      "inputs": [],
      "name": "investmentRecieved",
      "outputs": [
        {
          "internalType": "uint256",
          "name": "",
          "type": "uint256"
        }
      ],
      "stateMutability": "view",
      "type": "function",
      "constant": true
    },
    {
      "inputs": [],
      "name": "investmentRefunded",
      "outputs": [
        {
          "internalType": "uint256",
          "name": "",
          "type": "uint256"
        }
      ],
      "stateMutability": "view",
      "type": "function",
      "constant": true
    },
    {
      "inputs": [],
      "name": "isFinalized",
      "outputs": [
        {
          "internalType": "bool",
          "name": "",
          "type": "bool"
        }
      ],
      "stateMutability": "view",
      "type": "function",
      "constant": true
    },
    {
      "inputs": [],
      "name": "isRefundingAllowed",
      "outputs": [
        {
          "internalType": "bool",
          "name": "",
          "type": "bool"
        }
      ],
      "stateMutability": "view",
      "type": "function",
      "constant": true
    },
    {
      "inputs": [],
      "name": "owner",
      "outputs": [
        {
          "internalType": "address",
          "name": "",
          "type": "address"
        }
      ],
      "stateMutability": "view",
      "type": "function",
      "constant": true
    },
    {
      "inputs": [],
      "name": "startTime",
      "outputs": [
        {
          "internalType": "uint256",
          "name": "",
          "type": "uint256"
        }
      ],
      "stateMutability": "view",
      "type": "function",
      "constant": true
    },
    {
      "inputs": [],
      "name": "weiInvestmentObjective",
      "outputs": [
        {
          "internalType": "uint256",
          "name": "",
          "type": "uint256"
        }
      ],
      "stateMutability": "view",
      "type": "function",
      "constant": true
    },
    {
      "inputs": [],
      "name": "weiTokenPrice",
      "outputs": [
        {
          "internalType": "uint256",
          "name": "",
          "type": "uint256"
        }
      ],
      "stateMutability": "view",
      "type": "function",
      "constant": true
    },
    {
      "inputs": [
        {
          "internalType": "address",
          "name": "_beneficiary",
          "type": "address"
        }
      ],
      "name": "invest",
      "outputs": [],
      "stateMutability": "payable",
      "type": "function",
      "payable": true
    },
    {
      "inputs": [],
      "name": "refund",
      "outputs": [],
      "stateMutability": "nonpayable",
      "type": "function"
    }
  ],
  "bytecode": "0x608060405234801561001057600080fd5b5060405161054b38038061054b8339818101604052608081101561003357600080fd5b81019080805190602001909291908051906020019092919080519060200190929190805190602001909291905050504284101561006f57600080fd5b8383101561007c57600080fd5b600082141561008a57600080fd5b600081141561009857600080fd5b836000819055508260018190555081600281905550670de0b6b3a764000081026003819055506000600760006101000a81548160ff0219169083151502179055506000600760016101000a81548160ff02191690831515021790555033600760026101000a81548173ffffffffffffffffffffffffffffffffffffffff021916908373ffffffffffffffffffffffffffffffffffffffff16021790555050505050610403806101486000396000f3fe6080604052600436106100c4576000357c0100000000000000000000000000000000000000000000000000000000900480638da5cb5b116100815780638da5cb5b146101d45780638ffc53211461022b578063912e704e14610256578063bab34f43146102bb578063cb6f16d4146102e6578063ee56cf4114610315576100c4565b806303f9c793146100c95780633197cbb61461010d57806338ef938014610138578063590e1ae31461016357806378e979251461017a5780638d4e4083146101a5575b600080fd5b61010b600480360360208110156100df57600080fd5b81019080803573ffffffffffffffffffffffffffffffffffffffff169060200190929190505050610340565b005b34801561011957600080fd5b50610122610343565b6040518082815260200191505060405180910390f35b34801561014457600080fd5b5061014d610349565b6040518082815260200191505060405180910390f35b34801561016f57600080fd5b5061017861034f565b005b34801561018657600080fd5b5061018f610351565b6040518082815260200191505060405180910390f35b3480156101b157600080fd5b506101ba610357565b604051808215151515815260200191505060405180910390f35b3480156101e057600080fd5b506101e961036a565b604051808273ffffffffffffffffffffffffffffffffffffffff1673ffffffffffffffffffffffffffffffffffffffff16815260200191505060405180910390f35b34801561023757600080fd5b50610240610390565b6040518082815260200191505060405180910390f35b34801561026257600080fd5b506102a56004803603602081101561027957600080fd5b81019080803573ffffffffffffffffffffffffffffffffffffffff169060200190929190505050610396565b6040518082815260200191505060405180910390f35b3480156102c757600080fd5b506102d06103ae565b6040518082815260200191505060405180910390f35b3480156102f257600080fd5b506102fb6103b4565b604051808215151515815260200191505060405180910390f35b34801561032157600080fd5b5061032a6103c7565b6040518082815260200191505060405180910390f35b50565b60015481565b60065481565b565b60005481565b600760009054906101000a900460ff1681565b600760029054906101000a900473ffffffffffffffffffffffffffffffffffffffff1681565b60055481565b60046020528060005260406000206000915090505481565b60035481565b600760019054906101000a900460ff1681565b6002548156fea26469706673582212205ccaccebdd78c2260f8a4ef368f8152f39db1e042e6cd680ac5b6de88314554464736f6c63430006040033",
  "source": "pragma solidity ^0.6.1;\n\n\ncontract Crowdsale{\n    uint256 public startTime;\n    uint256 public endTime;\n    uint256 public weiTokenPrice;\n    uint256 public weiInvestmentObjective;\n    mapping(address => uint256) public investmentAmountOf;\n    uint public investmentRecieved;\n    uint256 public investmentRefunded;\n    bool public isFinalized;\n    bool public isRefundingAllowed;\n    address public owner;\n    // SimpleCoin public crowdsaleToken;\n\n\n    constructor(\n        uint256 _startTime,\n        uint256 _endTime,\n        uint256 _weiTokenPrice,\n        uint256 _etherInvestmentObjective\n    ) public {\n        require(_startTime >= now);\n        require(_endTime >= _startTime);\n        require(_weiTokenPrice != 0);\n        require(_etherInvestmentObjective != 0);\n\n        startTime = _startTime;\n        endTime = _endTime;\n        weiTokenPrice = _weiTokenPrice;\n        weiInvestmentObjective = _etherInvestmentObjective * 1000000000000000000;\n\n        // crowdSaleToken = new SimpleCoin(0);\n        isFinalized = false;\n        isRefundingAllowed = false;\n        owner = msg.sender;\n    }\n\n    function invest(address _beneficiary) public payable{\n        // allows an investor to book corwdsale tokens\n    }\n    // function finalize() onlyOwner public{\n    //     // allows the crowdsale organizer, who is the contract owner \n    //     // to release tokens to investors in case of successfull completion\n    // }\n    function refund() public {\n        // allows an investor to get \n        // a refund in case of unsuccessfull completion\n    }\n\n}",
  "sourcePath": "/home/goodness/Development/ethereum/Aragon/AragonCrowdFund/client/src/contracts/Crowdsale.sol",
  "compiler": {
    "name": "solc",
    "version": "0.6.4+commit.1dca32f3.Emscripten.clang"
  },
  "schemaVersion": "3.0.23",
  "updatedAt": "2020-03-12T20:15:40.338Z",
  "networkType": "ethereum",
  "devdoc": {
    "methods": {}
  },
  "userdoc": {
    "methods": {}
  }
}