{
  "contractName": "Elesarr",
  "abi": [
    {
      "anonymous": false,
      "inputs": [
        {
          "indexed": false,
          "internalType": "string",
          "name": "project_name",
          "type": "string"
        },
        {
          "indexed": false,
          "internalType": "address",
          "name": "contributor",
          "type": "address"
        },
        {
          "indexed": false,
          "internalType": "uint256",
          "name": "value",
          "type": "uint256"
        }
      ],
      "name": "Contributed",
      "type": "event"
    },
    {
      "anonymous": false,
      "inputs": [
        {
          "indexed": false,
          "internalType": "address",
          "name": "recipient",
          "type": "address"
        }
      ],
      "name": "CreatorPaid",
      "type": "event"
    },
    {
      "anonymous": false,
      "inputs": [
        {
          "indexed": false,
          "internalType": "address",
          "name": "contributor",
          "type": "address"
        },
        {
          "indexed": false,
          "internalType": "uint256",
          "name": "amount",
          "type": "uint256"
        },
        {
          "indexed": false,
          "internalType": "uint256",
          "name": "currentTotal",
          "type": "uint256"
        }
      ],
      "name": "FundReceived",
      "type": "event"
    },
    {
      "anonymous": false,
      "inputs": [
        {
          "indexed": false,
          "internalType": "string",
          "name": "name",
          "type": "string"
        },
        {
          "indexed": false,
          "internalType": "uint256",
          "name": "currentBalance",
          "type": "uint256"
        },
        {
          "indexed": false,
          "internalType": "uint256",
          "name": "completedAt",
          "type": "uint256"
        }
      ],
      "name": "ProjectCompletedAt",
      "type": "event"
    },
    {
      "anonymous": false,
      "inputs": [
        {
          "indexed": false,
          "internalType": "string",
          "name": "id",
          "type": "string"
        },
        {
          "indexed": false,
          "internalType": "address payable",
          "name": "creator",
          "type": "address"
        },
        {
          "indexed": false,
          "internalType": "string",
          "name": "project_name",
          "type": "string"
        },
        {
          "indexed": false,
          "internalType": "string",
          "name": "project_description",
          "type": "string"
        },
        {
          "indexed": false,
          "internalType": "uint256",
          "name": "goal",
          "type": "uint256"
        },
        {
          "indexed": false,
          "internalType": "uint256",
          "name": "created",
          "type": "uint256"
        },
        {
          "indexed": false,
          "internalType": "uint256",
          "name": "deadline",
          "type": "uint256"
        },
        {
          "indexed": false,
          "internalType": "uint256",
          "name": "currentBalance",
          "type": "uint256"
        }
      ],
      "name": "ProjectCreated",
      "type": "event"
    },
    {
      "inputs": [],
      "name": "contributionCount",
      "outputs": [
        {
          "internalType": "uint256",
          "name": "",
          "type": "uint256"
        }
      ],
      "stateMutability": "view",
      "type": "function",
      "constant": true
    },
    {
      "inputs": [
        {
          "internalType": "address",
          "name": "",
          "type": "address"
        }
      ],
      "name": "contributions",
      "outputs": [
        {
          "internalType": "uint256",
          "name": "",
          "type": "uint256"
        }
      ],
      "stateMutability": "view",
      "type": "function",
      "constant": true
    },
    {
      "inputs": [],
      "name": "dapp_name",
      "outputs": [
        {
          "internalType": "string",
          "name": "",
          "type": "string"
        }
      ],
      "stateMutability": "view",
      "type": "function",
      "constant": true
    },
    {
      "inputs": [],
      "name": "projectCount",
      "outputs": [
        {
          "internalType": "uint256",
          "name": "",
          "type": "uint256"
        }
      ],
      "stateMutability": "view",
      "type": "function",
      "constant": true
    },
    {
      "inputs": [
        {
          "internalType": "string",
          "name": "",
          "type": "string"
        }
      ],
      "name": "projects",
      "outputs": [
        {
          "internalType": "string",
          "name": "id",
          "type": "string"
        },
        {
          "internalType": "address payable",
          "name": "creator",
          "type": "address"
        },
        {
          "internalType": "string",
          "name": "project_name",
          "type": "string"
        },
        {
          "internalType": "string",
          "name": "project_description",
          "type": "string"
        },
        {
          "internalType": "uint256",
          "name": "goal",
          "type": "uint256"
        },
        {
          "internalType": "uint256",
          "name": "created",
          "type": "uint256"
        },
        {
          "internalType": "uint256",
          "name": "deadline",
          "type": "uint256"
        },
        {
          "internalType": "uint256",
          "name": "currentBalance",
          "type": "uint256"
        },
        {
          "internalType": "uint256",
          "name": "completedAt",
          "type": "uint256"
        }
      ],
      "stateMutability": "view",
      "type": "function",
      "constant": true
    },
    {
      "inputs": [
        {
          "internalType": "string",
          "name": "_id",
          "type": "string"
        },
        {
          "internalType": "string",
          "name": "_name",
          "type": "string"
        },
        {
          "internalType": "string",
          "name": "_description",
          "type": "string"
        },
        {
          "internalType": "uint256",
          "name": "_goal",
          "type": "uint256"
        },
        {
          "internalType": "uint256",
          "name": "_deadline",
          "type": "uint256"
        }
      ],
      "name": "createCampaign",
      "outputs": [],
      "stateMutability": "nonpayable",
      "type": "function"
    },
    {
      "inputs": [
        {
          "internalType": "string",
          "name": "_id",
          "type": "string"
        }
      ],
      "name": "getProject",
      "outputs": [
        {
          "internalType": "string",
          "name": "",
          "type": "string"
        },
        {
          "internalType": "string",
          "name": "",
          "type": "string"
        },
        {
          "internalType": "string",
          "name": "",
          "type": "string"
        },
        {
          "internalType": "uint256",
          "name": "",
          "type": "uint256"
        },
        {
          "internalType": "uint256",
          "name": "",
          "type": "uint256"
        },
        {
          "internalType": "uint256",
          "name": "",
          "type": "uint256"
        },
        {
          "internalType": "uint256",
          "name": "",
          "type": "uint256"
        },
        {
          "internalType": "address",
          "name": "",
          "type": "address"
        }
      ],
      "stateMutability": "view",
      "type": "function",
      "constant": true
    },
    {
      "inputs": [
        {
          "internalType": "string",
          "name": "_id",
          "type": "string"
        }
      ],
      "name": "contribute",
      "outputs": [],
      "stateMutability": "payable",
      "type": "function",
      "payable": true
    },
    {
      "inputs": [
        {
          "internalType": "string",
          "name": "_id",
          "type": "string"
        }
      ],
      "name": "checkIfFundingCompleteOrExpired",
      "outputs": [],
      "stateMutability": "nonpayable",
      "type": "function"
    }
  ],
  "bytecode": "0x60806040526040518060400160405280600781526020017f456c657361727200000000000000000000000000000000000000000000000000815250600290805190602001906200005192919062000066565b503480156200005f57600080fd5b5062000115565b828054600181600116156101000203166002900490600052602060002090601f016020900481019282601f10620000a957805160ff1916838001178555620000da565b82800160010185558215620000da579182015b82811115620000d9578251825591602001919060010190620000bc565b5b509050620000e99190620000ed565b5090565b6200011291905b808211156200010e576000816000905550600101620000f4565b5090565b90565b61219a80620001256000396000f3fe6080604052600436106100a3576000357c0100000000000000000000000000000000000000000000000000000000900480635c43217b116100765780635c43217b1461017f578063870426ca1461019b57806391c9b268146101c4578063980f2e6614610209578063b3ea346b14610232576100a3565b806336fbad26146100a857806342e94c90146100d35780634fa691e2146101105780635b18056b14610154575b600080fd5b3480156100b457600080fd5b506100bd61025d565b6040516100ca9190611f7b565b60405180910390f35b3480156100df57600080fd5b506100fa60048036036100f591908101906119f4565b610263565b6040516101079190611f7b565b60405180910390f35b34801561011c57600080fd5b5061013760048036036101329190810190611a5e565b61027b565b60405161014b989796959493929190611daa565b60405180910390f35b34801561016057600080fd5b5061016961057b565b6040516101769190611f7b565b60405180910390f35b61019960048036036101949190810190611a5e565b610581565b005b3480156101a757600080fd5b506101c260048036036101bd9190810190611a5e565b610ab2565b005b3480156101d057600080fd5b506101eb60048036036101e69190810190611a1d565b610ef0565b60405161020099989796959493929190611e3d565b60405180910390f35b34801561021557600080fd5b50610230600480360361022b9190810190611a9f565b61113c565b005b34801561023e57600080fd5b5061024761135c565b6040516102549190611cf5565b60405180910390f35b60005481565b60036020528060005260406000206000915090505481565b6060806060600080600080600061029061179b565b60048a6040516102a09190611c8c565b908152602001604051809103902060405180610120016040529081600082018054600181600116156101000203166002900480601f0160208091040260200160405190810160405280929190818152602001828054600181600116156101000203166002900480156103535780601f1061032857610100808354040283529160200191610353565b820191906000526020600020905b81548152906001019060200180831161033657829003601f168201915b505050505081526020016001820160009054906101000a900473ffffffffffffffffffffffffffffffffffffffff1673ffffffffffffffffffffffffffffffffffffffff1673ffffffffffffffffffffffffffffffffffffffff168152602001600282018054600181600116156101000203166002900480601f01602080910402602001604051908101604052809291908181526020018280546001816001161561010002031660029004801561044b5780601f106104205761010080835404028352916020019161044b565b820191906000526020600020905b81548152906001019060200180831161042e57829003601f168201915b50505050508152602001600382018054600181600116156101000203166002900480601f0160208091040260200160405190810160405280929190818152602001828054600181600116156101000203166002900480156104ed5780601f106104c2576101008083540402835291602001916104ed565b820191906000526020600020905b8154815290600101906020018083116104d057829003601f168201915b505050505081526020016004820154815260200160058201548152602001600682015481526020016007820154815260200160088201548152505090508060000151816040015182606001518360e0015184608001518560c0015186610100015187602001518797508696508595508090509850985098509850985098509850985050919395975091939597565b60015481565b60016000815480929190600101919050555061059b61179b565b6004826040516105ab9190611c8c565b908152602001604051809103902060405180610120016040529081600082018054600181600116156101000203166002900480601f01602080910402602001604051908101604052809291908181526020018280546001816001161561010002031660029004801561065e5780601f106106335761010080835404028352916020019161065e565b820191906000526020600020905b81548152906001019060200180831161064157829003601f168201915b505050505081526020016001820160009054906101000a900473ffffffffffffffffffffffffffffffffffffffff1673ffffffffffffffffffffffffffffffffffffffff1673ffffffffffffffffffffffffffffffffffffffff168152602001600282018054600181600116156101000203166002900480601f0160208091040260200160405190810160405280929190818152602001828054600181600116156101000203166002900480156107565780601f1061072b57610100808354040283529160200191610756565b820191906000526020600020905b81548152906001019060200180831161073957829003601f168201915b50505050508152602001600382018054600181600116156101000203166002900480601f0160208091040260200160405190810160405280929190818152602001828054600181600116156101000203166002900480156107f85780601f106107cd576101008083540402835291602001916107f8565b820191906000526020600020905b8154815290600101906020018083116107db57829003601f168201915b50505050508152602001600482015481526020016005820154815260200160068201548152602001600782015481526020016008820154815250509050806020015173ffffffffffffffffffffffffffffffffffffffff163373ffffffffffffffffffffffffffffffffffffffff16141561087257600080fd5b6000341161087f57600080fd5b6108d134600360003373ffffffffffffffffffffffffffffffffffffffff1673ffffffffffffffffffffffffffffffffffffffff168152602001908152602001600020546113fa90919063ffffffff16565b600360003373ffffffffffffffffffffffffffffffffffffffff1673ffffffffffffffffffffffffffffffffffffffff168152602001908152602001600020819055507fed8a55058e56fac3094f2a2adb9c4e358d618e7c39b7ae5ed9a512c6216110428160400151333460405161094b93929190611edf565b60405180910390a161096a348260e001516113fa90919063ffffffff16565b8160e0018181525050806004836040516109849190611c8c565b908152602001604051809103902060008201518160000190805190602001906109ae9291906117fd565b5060208201518160010160006101000a81548173ffffffffffffffffffffffffffffffffffffffff021916908373ffffffffffffffffffffffffffffffffffffffff1602179055506040820151816002019080519060200190610a129291906117fd565b506060820151816003019080519060200190610a2f9291906117fd565b506080820151816004015560a0820151816005015560c0820151816006015560e0820151816007015561010082015181600801559050507fb01599268f9e5876866cb213fd68ef71bcc2ffbc5981b15fab922cd59f13b1dd33348360e00151604051610a9d93929190611cbe565b60405180910390a1610aae82610ab2565b5050565b610aba61179b565b600482604051610aca9190611c8c565b908152602001604051809103902060405180610120016040529081600082018054600181600116156101000203166002900480601f016020809104026020016040519081016040528092919081815260200182805460018160011615610100020316600290048015610b7d5780601f10610b5257610100808354040283529160200191610b7d565b820191906000526020600020905b815481529060010190602001808311610b6057829003601f168201915b505050505081526020016001820160009054906101000a900473ffffffffffffffffffffffffffffffffffffffff1673ffffffffffffffffffffffffffffffffffffffff1673ffffffffffffffffffffffffffffffffffffffff168152602001600282018054600181600116156101000203166002900480601f016020809104026020016040519081016040528092919081815260200182805460018160011615610100020316600290048015610c755780601f10610c4a57610100808354040283529160200191610c75565b820191906000526020600020905b815481529060010190602001808311610c5857829003601f168201915b50505050508152602001600382018054600181600116156101000203166002900480601f016020809104026020016040519081016040528092919081815260200182805460018160011615610100020316600290048015610d175780601f10610cec57610100808354040283529160200191610d17565b820191906000526020600020905b815481529060010190602001808311610cfa57829003601f168201915b5050505050815260200160048201548152602001600582015481526020016006820154815260200160078201548152602001600882015481525050905080608001518160e0015110610d7257610d6c8261144f565b50610e99565b8060c00151421115610e985742600483604051610d8f9190611c8c565b90815260200160405180910390206008018190555080600483604051610db59190611c8c565b90815260200160405180910390206000820151816000019080519060200190610ddf9291906117fd565b5060208201518160010160006101000a81548173ffffffffffffffffffffffffffffffffffffffff021916908373ffffffffffffffffffffffffffffffffffffffff1602179055506040820151816002019080519060200190610e439291906117fd565b506060820151816003019080519060200190610e609291906117fd565b506080820151816004015560a0820151816005015560c0820151816006015560e0820151816007015561010082015181600801559050505b5b42816101000181815250507feb5cb132e83c97a2fec60cd7374a0f81e8bce377ef0747b2e5c4437cbcc66ad981604001518260e00151836101000151604051610ee493929190611f1d565b60405180910390a15050565b600481805160208101820180518482526020830160208501208183528095505050505050600091509050806000018054600181600116156101000203166002900480601f016020809104026020016040519081016040528092919081815260200182805460018160011615610100020316600290048015610fb25780601f10610f8757610100808354040283529160200191610fb2565b820191906000526020600020905b815481529060010190602001808311610f9557829003601f168201915b5050505050908060010160009054906101000a900473ffffffffffffffffffffffffffffffffffffffff1690806002018054600181600116156101000203166002900480601f0160208091040260200160405190810160405280929190818152602001828054600181600116156101000203166002900480156110765780601f1061104b57610100808354040283529160200191611076565b820191906000526020600020905b81548152906001019060200180831161105957829003601f168201915b505050505090806003018054600181600116156101000203166002900480601f0160208091040260200160405190810160405280929190818152602001828054600181600116156101000203166002900480156111145780601f106110e957610100808354040283529160200191611114565b820191906000526020600020905b8154815290600101906020018083116110f757829003601f168201915b5050505050908060040154908060050154908060060154908060070154908060080154905089565b60008081548092919060010191905055508460048660405161115e9190611c8c565b9081526020016040518091039020600001908051906020019061118292919061187d565b50336004866040516111949190611c8c565b908152602001604051809103902060010160006101000a81548173ffffffffffffffffffffffffffffffffffffffff021916908373ffffffffffffffffffffffffffffffffffffffff160217905550836004866040516111f49190611c8c565b9081526020016040518091039020600201908051906020019061121892919061187d565b508260048660405161122a9190611c8c565b9081526020016040518091039020600301908051906020019061124e92919061187d565b50816004866040516112609190611c8c565b908152602001604051809103902060040181905550426004866040516112869190611c8c565b908152602001604051809103902060050181905550806004866040516112ac9190611c8c565b90815260200160405180910390206006018190555060006004866040516112d39190611c8c565b90815260200160405180910390206007018190555060006004866040516112fa9190611c8c565b9081526020016040518091039020600801819055507f614f15d0d753b041bb91cd302a873f92dc259c10c0b4d24de8da9fb9295aa7bf85338686864287600060405161134d989796959493929190611d17565b60405180910390a15050505050565b60028054600181600116156101000203166002900480601f0160208091040260200160405190810160405280929190818152602001828054600181600116156101000203166002900480156113f25780601f106113c7576101008083540402835291602001916113f2565b820191906000526020600020905b8154815290600101906020018083116113d557829003601f168201915b505050505081565b600080828401905083811015611445576040517f08c379a000000000000000000000000000000000000000000000000000000000815260040161143c90611f5b565b60405180910390fd5b8091505092915050565b600061145961179b565b6004836040516114699190611c8c565b908152602001604051809103902060405180610120016040529081600082018054600181600116156101000203166002900480601f01602080910402602001604051908101604052809291908181526020018280546001816001161561010002031660029004801561151c5780601f106114f15761010080835404028352916020019161151c565b820191906000526020600020905b8154815290600101906020018083116114ff57829003601f168201915b505050505081526020016001820160009054906101000a900473ffffffffffffffffffffffffffffffffffffffff1673ffffffffffffffffffffffffffffffffffffffff1673ffffffffffffffffffffffffffffffffffffffff168152602001600282018054600181600116156101000203166002900480601f0160208091040260200160405190810160405280929190818152602001828054600181600116156101000203166002900480156116145780601f106115e957610100808354040283529160200191611614565b820191906000526020600020905b8154815290600101906020018083116115f757829003601f168201915b50505050508152602001600382018054600181600116156101000203166002900480601f0160208091040260200160405190810160405280929190818152602001828054600181600116156101000203166002900480156116b65780601f1061168b576101008083540402835291602001916116b6565b820191906000526020600020905b81548152906001019060200180831161169957829003601f168201915b5050505050815260200160048201548152602001600582015481526020016006820154815260200160078201548152602001600882015481525050905060008160e00151905060008260e0018181525050816020015173ffffffffffffffffffffffffffffffffffffffff166108fc829081150290604051600060405180830381858888f1935050505015611785577f2f256415efc8561af8db667cb242964b19be7380f379ccdafaa0e54a6f6b706982602001516040516117789190611ca3565b60405180910390a1611790565b808260e00181815250505b600092505050919050565b60405180610120016040528060608152602001600073ffffffffffffffffffffffffffffffffffffffff168152602001606081526020016060815260200160008152602001600081526020016000815260200160008152602001600081525090565b828054600181600116156101000203166002900490600052602060002090601f016020900481019282601f1061183e57805160ff191683800117855561186c565b8280016001018555821561186c579182015b8281111561186b578251825591602001919060010190611850565b5b50905061187991906118fd565b5090565b828054600181600116156101000203166002900490600052602060002090601f016020900481019282601f106118be57805160ff19168380011785556118ec565b828001600101855582156118ec579182015b828111156118eb5782518255916020019190600101906118d0565b5b5090506118f991906118fd565b5090565b61191f91905b8082111561191b576000816000905550600101611903565b5090565b90565b60008135905061193181612136565b92915050565b600082601f83011261194857600080fd5b813561195b61195682611fc3565b611f96565b9150808252602083016020830185838301111561197757600080fd5b6119828382846120e3565b50505092915050565b600082601f83011261199c57600080fd5b81356119af6119aa82611fef565b611f96565b915080825260208301602083018583830111156119cb57600080fd5b6119d68382846120e3565b50505092915050565b6000813590506119ee8161214d565b92915050565b600060208284031215611a0657600080fd5b6000611a1484828501611922565b91505092915050565b600060208284031215611a2f57600080fd5b600082013567ffffffffffffffff811115611a4957600080fd5b611a5584828501611937565b91505092915050565b600060208284031215611a7057600080fd5b600082013567ffffffffffffffff811115611a8a57600080fd5b611a968482850161198b565b91505092915050565b600080600080600060a08688031215611ab757600080fd5b600086013567ffffffffffffffff811115611ad157600080fd5b611add8882890161198b565b955050602086013567ffffffffffffffff811115611afa57600080fd5b611b068882890161198b565b945050604086013567ffffffffffffffff811115611b2357600080fd5b611b2f8882890161198b565b9350506060611b40888289016119df565b9250506080611b51888289016119df565b9150509295509295909350565b611b678161209b565b82525050565b611b768161205f565b82525050565b611b858161204d565b82525050565b611b94816120ad565b82525050565b6000611ba582612026565b611baf8185612031565b9350611bbf8185602086016120f2565b611bc881612125565b840191505092915050565b6000611bde82612026565b611be88185612042565b9350611bf88185602086016120f2565b80840191505092915050565b6000611c0f8261201b565b611c198185612031565b9350611c298185602086016120f2565b611c3281612125565b840191505092915050565b6000611c4a601b83612031565b91507f536166654d6174683a206164646974696f6e206f766572666c6f7700000000006000830152602082019050919050565b611c8681612091565b82525050565b6000611c988284611bd3565b915081905092915050565b6000602082019050611cb86000830184611b5e565b92915050565b6000606082019050611cd36000830186611b5e565b611ce06020830185611c7d565b611ced6040830184611c7d565b949350505050565b60006020820190508181036000830152611d0f8184611c04565b905092915050565b6000610100820190508181036000830152611d32818b611b9a565b9050611d41602083018a611b6d565b8181036040830152611d538189611b9a565b90508181036060830152611d678188611b9a565b9050611d766080830187611c7d565b611d8360a0830186611c7d565b611d9060c0830185611c7d565b611d9d60e0830184611b8b565b9998505050505050505050565b6000610100820190508181036000830152611dc5818b611b9a565b90508181036020830152611dd9818a611b9a565b90508181036040830152611ded8189611b9a565b9050611dfc6060830188611c7d565b611e096080830187611c7d565b611e1660a0830186611c7d565b611e2360c0830185611c7d565b611e3060e0830184611b7c565b9998505050505050505050565b6000610120820190508181036000830152611e58818c611c04565b9050611e67602083018b611b6d565b8181036040830152611e79818a611c04565b90508181036060830152611e8d8189611c04565b9050611e9c6080830188611c7d565b611ea960a0830187611c7d565b611eb660c0830186611c7d565b611ec360e0830185611c7d565b611ed1610100830184611c7d565b9a9950505050505050505050565b60006060820190508181036000830152611ef98186611c04565b9050611f086020830185611b5e565b611f156040830184611c7d565b949350505050565b60006060820190508181036000830152611f378186611c04565b9050611f466020830185611c7d565b611f536040830184611c7d565b949350505050565b60006020820190508181036000830152611f7481611c3d565b9050919050565b6000602082019050611f906000830184611c7d565b92915050565b6000604051905081810181811067ffffffffffffffff82111715611fb957600080fd5b8060405250919050565b600067ffffffffffffffff821115611fda57600080fd5b601f19601f8301169050602081019050919050565b600067ffffffffffffffff82111561200657600080fd5b601f19601f8301169050602081019050919050565b600081519050919050565b600081519050919050565b600082825260208201905092915050565b600081905092915050565b600061205882612071565b9050919050565b600061206a82612071565b9050919050565b600073ffffffffffffffffffffffffffffffffffffffff82169050919050565b6000819050919050565b60006120a6826120bf565b9050919050565b60006120b882612091565b9050919050565b60006120ca826120d1565b9050919050565b60006120dc82612071565b9050919050565b82818337600083830152505050565b60005b838110156121105780820151818401526020810190506120f5565b8381111561211f576000848401525b50505050565b6000601f19601f8301169050919050565b61213f8161204d565b811461214a57600080fd5b50565b61215681612091565b811461216157600080fd5b5056fea26469706673582212207918c2cb2f7ab42070f82ae4a6f12826dd9916baf216dc491fc82af2eae1053464736f6c63430006030033",
  "source": "pragma solidity ^0.6.1;\n\npragma experimental ABIEncoderV2;\n\nlibrary SafeMath {\n    /**\n     * @dev Returns the addition of two unsigned integers, reverting on\n     * overflow.\n     *\n     * Counterpart to Solidity's `+` operator.\n     *\n     * Requirements:\n     * - Addition cannot overflow.\n     */\n    function add(uint256 a, uint256 b) internal pure returns (uint256) {\n        uint256 c = a + b;\n        require(c >= a, \"SafeMath: addition overflow\");\n\n        return c;\n    }\n\n    /**\n     * @dev Returns the subtraction of two unsigned integers, reverting on\n     * overflow (when the result is negative).\n     *\n     * Counterpart to Solidity's `-` operator.\n     *\n     * Requirements:\n     * - Subtraction cannot overflow.\n     */\n    function sub(uint256 a, uint256 b) internal pure returns (uint256) {\n        return sub(a, b, \"SafeMath: subtraction overflow\");\n    }\n\n    /**\n     * @dev Returns the subtraction of two unsigned integers, reverting with custom message on\n     * overflow (when the result is negative).\n     *\n     * Counterpart to Solidity's `-` operator.\n     *\n     * Requirements:\n     * - Subtraction cannot overflow.\n     *\n     * _Available since v2.4.0._\n     */\n    function sub(uint256 a, uint256 b, string memory errorMessage) internal pure returns (uint256) {\n        require(b <= a, errorMessage);\n        uint256 c = a - b;\n\n        return c;\n    }\n\n    /**\n     * @dev Returns the multiplication of two unsigned integers, reverting on\n     * overflow.\n     *\n     * Counterpart to Solidity's `*` operator.\n     *\n     * Requirements:\n     * - Multiplication cannot overflow.\n     */\n    function mul(uint256 a, uint256 b) internal pure returns (uint256) {\n        // Gas optimization: this is cheaper than requiring 'a' not being zero, but the\n        // benefit is lost if 'b' is also tested.\n        // See: https://github.com/OpenZeppelin/openzeppelin-contracts/pull/522\n        if (a == 0) {\n            return 0;\n        }\n\n        uint256 c = a * b;\n        require(c / a == b, \"SafeMath: multiplication overflow\");\n\n        return c;\n    }\n\n    /**\n     * @dev Returns the integer division of two unsigned integers. Reverts on\n     * division by zero. The result is rounded towards zero.\n     *\n     * Counterpart to Solidity's `/` operator. Note: this function uses a\n     * `revert` opcode (which leaves remaining gas untouched) while Solidity\n     * uses an invalid opcode to revert (consuming all remaining gas).\n     *\n     * Requirements:\n     * - The divisor cannot be zero.\n     */\n    function div(uint256 a, uint256 b) internal pure returns (uint256) {\n        return div(a, b, \"SafeMath: division by zero\");\n    }\n\n    /**\n     * @dev Returns the integer division of two unsigned integers. Reverts with custom message on\n     * division by zero. The result is rounded towards zero.\n     *\n     * Counterpart to Solidity's `/` operator. Note: this function uses a\n     * `revert` opcode (which leaves remaining gas untouched) while Solidity\n     * uses an invalid opcode to revert (consuming all remaining gas).\n     *\n     * Requirements:\n     * - The divisor cannot be zero.\n     *\n     * _Available since v2.4.0._\n     */\n    function div(uint256 a, uint256 b, string memory errorMessage) internal pure returns (uint256) {\n        // Solidity only automatically asserts when dividing by 0\n        require(b > 0, errorMessage);\n        uint256 c = a / b;\n        // assert(a == b * c + a % b); // There is no case in which this doesn't hold\n\n        return c;\n    }\n\n    /**\n     * @dev Returns the remainder of dividing two unsigned integers. (unsigned integer modulo),\n     * Reverts when dividing by zero.\n     *\n     * Counterpart to Solidity's `%` operator. This function uses a `revert`\n     * opcode (which leaves remaining gas untouched) while Solidity uses an\n     * invalid opcode to revert (consuming all remaining gas).\n     *\n     * Requirements:\n     * - The divisor cannot be zero.\n     */\n    function mod(uint256 a, uint256 b) internal pure returns (uint256) {\n        return mod(a, b, \"SafeMath: modulo by zero\");\n    }\n\n    /**\n     * @dev Returns the remainder of dividing two unsigned integers. (unsigned integer modulo),\n     * Reverts with custom message when dividing by zero.\n     *\n     * Counterpart to Solidity's `%` operator. This function uses a `revert`\n     * opcode (which leaves remaining gas untouched) while Solidity uses an\n     * invalid opcode to revert (consuming all remaining gas).\n     *\n     * Requirements:\n     * - The divisor cannot be zero.\n     *\n     * _Available since v2.4.0._\n     */\n    function mod(uint256 a, uint256 b, string memory errorMessage) internal pure returns (uint256) {\n        require(b != 0, errorMessage);\n        return a % b;\n    }\n}\n\ncontract Elesarr{\n\n    using SafeMath for uint256;\n\n    /**\n    @param projectCount : Keeping Track Of the number of campaigns\n    @param contributionCount : keeping track of the number of contributors\n    @param dapp_name : dapp name\n    @param contributions : contributor address and their value\n    @param projects    : projects maps\n    */\n    uint public projectCount;\n    uint public contributionCount;\n    string public dapp_name = \"Elesarr\";\n    mapping (address => uint256) public contributions;\n    mapping(string => Project) public projects;\n\n\n\n    /** PROJECT STRUCT\n        @param id : project id\n        @param creator: project creator address\n        @param project_name : Project name\n        @param project_descripion: Project Desciption\n        @param goal : amount goal\n        @param created: time project was created\n        @param deadline : project date deadline\n        @param currentBalance : amount project has gianned\n        @param completedAt : time the project funding was completed\n    */\n\n    // struct Contributor{\n    //     string project_id;\n    //     uint256 id;\n    //     address payable contributor_address;\n    //     uint256 value;\n    // }\n\n\n    struct Project{\n        string  id;\n        address payable creator;\n        string project_name;\n        string project_description;\n        uint256 goal;\n        uint256 created;\n        uint256 deadline;\n        uint256 currentBalance;\n        uint256 completedAt;\n        // Contributor[] contributors;\n    }\n\n    /* START EVENTS */\n    event ProjectCreated(\n        string id,\n        address payable creator,\n        string project_name,\n        string project_description,\n        uint256 goal,\n        uint256 created,\n        uint256 deadline,\n        uint256 currentBalance\n    );\n\n\n    // event ContributedCreated(\n    //     string project_id,\n    //     uint256 id,\n    //     address payable contributor_address,\n    //     uint256 value\n    // );\n\n    event Contributed(\n        string  project_name,\n        address contributor,\n        uint256 value\n    );\n    event CreatorPaid(address recipient);\n    event FundReceived(address contributor, uint256 amount, uint256 currentTotal);\n    event ProjectCompletedAt(string name, uint256 currentBalance, uint256 completedAt);\n\n\n    /* END EVENTS */\n    function createCampaign(\n        /**\n            @param _id\n            @param _name\n            @param _description\n            @param _goal\n            @param _deadline\n            \n        */\n        string memory _id,\n        string memory _name,\n        string memory _description,\n        uint _goal,\n        uint _deadline\n    )public {\n        projectCount++;\n        // Project memory newProject = Project({\n        //     id:_id,\n        //     creator:msg.sender,\n        //     project_name:_name,\n        //     project_description:_description,\n        //     goal:_goal,\n        //     created:now,\n        //     deadline:_deadline,\n        //     currentBalance:0,\n        //     completedAt: 0\n        // });\n        projects[_id].id = _id;\n        projects[_id].creator = msg.sender;\n        projects[_id].project_name = _name;\n        projects[_id].project_description = _description;\n        projects[_id].goal = _goal;\n        projects[_id].created= now;\n        projects[_id].deadline = _deadline;\n        projects[_id].currentBalance = 0;\n        projects[_id].completedAt = 0;\n        \n        \n        emit ProjectCreated(\n            _id,\n            msg.sender,\n            _name,\n            _description,\n            _goal,\n            now,\n            _deadline,\n         0\n        );           \n    }\n\n    function getProject(string memory _id) public view returns(\n        string memory,\n        string memory,\n        string memory,\n        uint256 ,\n        uint256 ,\n        uint256,\n        uint256,\n        address\n    ){\n\n    Project memory project = projects[_id];\n    return(\n        project.id,\n        project.project_name,\n        project.project_description,\n        project.currentBalance,\n        project.goal,\n        project.deadline,\n        project.completedAt,\n        project.creator\n    );\n    }\n\n\n\n\n/*\n    CONTRIBUTE FUNCTIONALITY\n*/\n\n     /**  CONTRIBUTE FUNCTIONALITY\n         \n      */\n\n    function contribute(string memory _id) public payable{\n        contributionCount++;  // increase contribution count\n        Project memory _project = projects[_id]; // gets the project\n         require(msg.sender != _project.creator); // checks\n         require(msg.value > 0); // checks\n         contributions[msg.sender] = contributions[msg.sender].add(msg.value); // increasest\n         emit Contributed(\n             _project.project_name,\n             msg.sender,\n             msg.value\n         );\n        _project.currentBalance =  _project.currentBalance.add(msg.value);  // increases the currentBalance\n\n        //  currentBalance = currentBalance.add(msg.value); //updates the totalbalance\n        projects[_id] = _project; // updates the \n         emit FundReceived(msg.sender, msg.value, _project.currentBalance);\n         checkIfFundingCompleteOrExpired(_id);\n     }\n     function checkIfFundingCompleteOrExpired(string memory _id) public{\n        Project memory _project = projects[_id];\n          if(_project.currentBalance >= _project.goal){\n            //   state = State.Successful;\n              payOut(_id);\n          } else if(now > _project.deadline){\n                // state = State.Expired;   \n                projects[_id].completedAt = now;\n                projects[_id] = _project;\n          }\n          _project.completedAt = now;\n          emit ProjectCompletedAt(\n                _project.project_name,\n                _project.currentBalance,\n                _project.completedAt\n         );\n      }\n              \n\n        function payOut(string memory _id) internal  returns (bool){\n            Project memory _project = projects[_id];\n            uint256 totalRaised = _project.currentBalance;\n            _project.currentBalance = 0;\n            if(_project.creator.send(totalRaised)){\n                emit CreatorPaid(_project.creator);\n            }else{\n                _project.currentBalance = totalRaised;\n                // state = State.Successful;\n            }\n            return false;\n        }\n\n\n\n\n}",
  "sourcePath": "/home/goodness/Development/ethereum/Aragon/AragonCrowdFund/client/src/contracts/Elesarr.sol",
  "compiler": {
    "name": "solc",
    "version": "0.6.3+commit.8dda9521.Emscripten.clang"
  },
  "schemaVersion": "3.0.23",
  "updatedAt": "2020-03-12T20:15:36.671Z",
  "networkType": "ethereum",
  "devdoc": {
    "methods": {}
  },
  "userdoc": {
    "methods": {
      "contribute(string)": {
        "notice": "CONTRIBUTE FUNCTIONALITY"
      }
    }
  }
}